:020000040040BA
:1000000028304020DD044000D9044000D9044000DD
:10001000D9044000D9044000D90440000000000089
:10002000000000000000000000000000D9044000B3
:10003000D904400000000000D9044000D904400069
:10004000D9044000D9044000D9044000D90440003C
:10005000D9044000D9044000D9044000D90440002C
:10006000D9044000000000000103400015034000D7
:1000700029034000D9044000D9044000D9044000BD
:100080003D03400051034000D9044000D904400022
:10009000D9044000D9044000D9044000D9044000EC
:1000A000D9044000D9044000D9044000D9044000DC
:1000B000D9044000D9044000D9044000D9044000CC
:1000C000D9044000D9044000D9044000D9044000BC
:1000D00000000000D904400000000000D9044000E6
:1000E000D9044000D9044000D9044000D90440009C
:1000F000D9044000D9044000D9044000D90440008C
:10010000D9044000D9044000D9044000D90440007B
:10011000D9044000000000000000000000000000C2
:10012000D9044000D9044000D9044000D90440005B
:10013000D904400000000000D9044000D904400068
:1001400010B5054C237833B9044B13B10448AFF311
:1001500000800123237010BD740F402000000000B8
:10016000081040000C4B43B10C480D4910B5AFF3DB
:1001700000800C48036823B910BD0A48036833B9EE
:100180007047094B002BF7D0BDE810401847064BCD
:10019000002BF5D0184700BF0000000008104000F9
:1001A000780F4020081040000000000010B51048F3
:1001B000104B98473E2100200F4B98470F4CA0470B
:1001C0000028FCD00E4B98470E4A0F4B9A620F4CFA
:1001D000A0470028FCD002200D4B984700200D4B73
:1001E00098470D4B98470248024B984710BD00BFF7
:1001F00000A3E111B1064000010440005504400095
:1002000065044000013F182000060E4075044000C0
:10021000650340009D034000A50540000AB9016642
:10022000704741667047016370474163704721F032
:100230000061B1F1405F05D1836B134214BF01200F
:1002400000207047C36BF8E7416412F0010F0DD135
:10025000016612F00A0F0BD0016212F0020F09D1F1
:1002600012F0080F08D0C0F8841005E04166F0E7EE
:100270004162F2E7C0F8801041610160704710B43C
:10028000019C41644CB901664BB101654AB94163B7
:10029000016101605DF8044B70474166F4E7416518
:1002A000F4E70163F4E7C06C7047806C70470000AE
:1002B0002DE9F041044688460E4B984705462046F6
:1002C0000D4B9847054013D00C4C04F1600603E039
:1002D000B4420DD010345DB120684045F8D161685A
:1002E0002942F5D0E3689847636825EA0305EFE7FC
:1002F000BDE8F081A7024000AB024000900F402013
:1003000008B50A210148024B984708BD000E0E406F
:10031000B102400008B50B210148024B984708BDC7
:1003200000100E40B102400008B50C210148024BFC
:10033000984708BD00120E40B102400008B51021D8
:100340000148024B984708BD00140E40B10240001E
:1003500008B511210148024B984708BD00160E4010
:10036000B1024000032811D0042812D002280CBF8B
:100370004FF480710021084A136B23F440730B4340
:100380001363936E13F0080FFBD070474FF4407166
:10039000F1E74FF40071EEE700060E40174A136BC9
:1003A00023F0700318431063936E13F0080F0AD103
:1003B0004FF4805311498A6E12F0080F03D1013BAC
:1003C000F9D1012070470D4A136B23F0030343F06A
:1003D00002031363936E13F0080F0AD14FF4805396
:1003E00006498A6E12F0080F05D1013BF9D10120B0
:1003F0007047002070470020704700BF00060E4085
:10040000A0B90E48036A090289B20D4A1A400D4B81
:100410001343194301620246936E13F0010FFBD0A0
:10042000064A116A084B0B431362704703490B6A73
:10043000064A1A40064B13430B62704700060E40F3
:10044000FCFFC8FF0100370000003701FCFFC8FEB9
:1004500002003701024B986E00F48030704700BFF5
:1004600000060E404FF00052014B9A62704700BFE9
:1004700000060E40024B986E00F00200704700BF6D
:1004800000060E403F281ED81F280CD8114B9A6931
:1004900001238340934318D0012303FA00F00D4B4E
:1004A00018610020704720380A4BD3F80821012337
:1004B000834093430BD0012303FA00F0054BC3F8AC
:1004C0000001002070470120704700207047002085
:1004D000704700BF00060E40FEE7000000B583B085
:1004E000254B264A9A4210D0254B234A9A420CD2D9
:1004F000013B9B1A23F00303043313441F4951F8B3
:10050000040B42F8040B9A42F9D11E4B1E4A9A4240
:100510000AD2013B9B1A23F0030304331344002146
:1005200042F8041B9342FBD1184A194B23F07F0376
:100530009360EFF31083B3FA83F35B09019372B610
:10054000BFF35F8F0022134B1A700199124A136890
:1005500043F470031360BFF34F8FBFF36F8F29B164
:1005600001220C4B1A70BFF35F8F62B60B4B98479A
:100570000B4B9847FEE700BF0000402008104000EA
:10058000740F402024104020740F402000ED00E044
:10059000000040000A00402088ED00E0690E4000A5
:1005A000110840003B4B1B6B03F00303012B1DD0D4
:1005B00083B1022B36D0374B1B6B03F07003702BCB
:1005C0005FD0344B1A6B3449C2F302120B68D3402C
:1005D0000B607047314B5B6913F0800F14BF4FF411
:1005E00000424FF4FA422C4B1A60E4E7294B1B6A95
:1005F00013F0807F03D02A4A274B1A60DBE7294A91
:10060000254B1A60234B1B6A03F07003102B05D097
:10061000202BD0D1224A204B1A60CCE7224A1E4B15
:100620001A60C8E71B4B1B6A13F0807F16D01C4A68
:10063000194B1A60174B1B6B03F00303022BBAD143
:10064000144A916A926A1448C1F30A41036801FB93
:100650000333D2B2B3FBF2F30360ACE7114A0E4BA3
:100660001A600C4B1B6A03F07003102B05D0202B73
:10067000E0D10B4A084B1A60DCE70B4A064B1A60C4
:10068000D8E7054A13680949A1FB03135B08136007
:10069000704700BF00060E400C00402010180E40AE
:1006A000001BB70000093D0000127A00ABAAAAAAFD
:1006B000124B984211D9124B984213D9114B9842C0
:1006C00014D9114B984215D9104B984294BF4FF052
:1006D00004220F4A0F4B1A6070474FF080620D4B97
:1006E0001A6070470C4A0B4B1A6070470B4A094B53
:1006F0001A6070470A4A074B1A607047FF2C310195
:10070000FF596202FF869303FFB3C404FFE0F505BF
:1007100000050004000C0E4000010004000200046B
:10072000000300042DE9F04383B0304B98474FF4A9
:1007300000422F4B5A600A202E4DA8470C20A84794
:100740000A20A8470A20A8471020A8470C20A8473D
:100750000C20A8471020A8471020A847DFF8A88041
:1007600000240094234622464FF480714046224ED6
:10077000B047224F00942346224608213846B0470E
:100780000094234601224FF400214046B047DFF891
:100790007C900094234601224FF080614846B04788
:1007A0000094234601224FF400614846B0470A20D6
:1007B000A84701224FF400613846114B9847224662
:1007C0004FF4006138460F4CA047012204213846FF
:1007D000A04701224FF080414846A04701224FF434
:1007E00000514046A04703B0BDE8F083AD01400092
:1007F00050180E40850440007F024000000E0E405D
:100800001D0240004902400000120E4000140E403C
:100810002DE9F04F85B0944B984700230393029342
:100820001E46DFF87CB231E00395052302930026D3
:100830002CE0012F13D04FF400218C488C4CA047A2
:100840008C4D4FF0806128468B4B98474FF40061E8
:100850002846A0470025894EDFF810A249E101286B
:1008600010D04FF400218148814DA847814C4FF0B2
:1008700080612046A8474FF4006120467E4B984790
:10088000032603E0012E26D0022EE3D004224FF0EF
:1008900020517A487A4CA04705464FF080424FF0ED
:1008A00020517448A04707464FF400524FF02051A2
:1008B0006E48A047012DBCD04FF400216B486E4B11
:1008C00098476C4D4FF080612846694CA0474FF423
:1008D00000612846A0470025DFF8A0A164E0039D41
:1008E0000023039302936CE03320664EB047082147
:1008F0005046614FB8474FF480715C48B847332089
:10090000B0470134604B53F82530A3422BDD58F833
:100910002500400099FBF0F708215046544EB0479F
:100920004FF480715148B047002FDDD0FB17A7FB73
:100930000B010BFB0311554A0023554E00273618B7
:100940004F4130463946534EB04701904D4EB04767
:1009500008215046484FB8474FF480714348B84784
:100960000198B047CDE74FF480714048404B98471D
:10097000454B53F825304FF4FA7000FB03F058B3A1
:10098000C317A0FB0B010BFB0311404A0023404E91
:10099000002736184F41304639463E4CA047394B68
:1009A00098470135CA2D1BDC4FF400624FF02051EF
:1009B0005046334B9847012840F0B880029B042BE7
:1009C0008DD0314B53F82530002BCCDD0024DFF8DF
:1009D000D480DFF8D4909AE733202A4B9847E0E799
:1009E000039D0126A5E0039D0023039302938EE05F
:1009F0003320244FB847082130461F4B98473320F7
:100A0000B8470134244B53F82530A3424EDD234B25
:100A100053F82500400099FBF0F708213046144BAD
:100A200098474FF480715046134B9847002FDFD002
:100A3000FB17A7FB0B010BFB0311144A0023144FF8
:100A40004FF000083F1848EB010838464146114F67
:100A5000B84780460B4FB84708213046064B9847A9
:100A60004046B847CDE700BF2507400000120E40C2
:100A70002702400000140E402B024000000E0E40E2
:100A80002F0240000100402080024020E0835A00F5
:100A9000DF835A00590B400010004020AC05402075
:100AA00000A3E1111C08402040420F004FF4807168
:100AB0005046214B9847214B53F825304FF47A701C
:100AC00000FB03F060B3C317A0FB0B010BFB03118A
:100AD0001B4A00231B4F4FF000083F1848EB01084A
:100AE00038464146184CA047184B984701359B2D76
:100AF0001ADC4FF400624FF020513046144B9847F7
:100B000001287FF491AE029B052B3FF46CAF0B4B99
:100B100053F82530002BC9DD0024DFF8389076E744
:100B200033200A4B9847E1E70226AFE604230293FD
:100B300000260395AAE600BF2702400010004020CF
:100B4000E0835A00DF835A00590B40000100402027
:100B50002F02400040420F0053B94AB9002908BF94
:100B600000281CBF4FF0FF314FF0FF3000F07AB982
:100B7000ADF1080C6DE904CE00F006F8DDF804E0F4
:100B8000DDE9022304B070472DE9F0478C460D469D
:100B90000446089E002B51D18A4217466DD9B2FAFD
:100BA00082FEBEF1000F0BD0CEF1200C01FA0EF543
:100BB00020FA0CFC02FA0EF74CEA050C00FA0EF4CF
:100BC0004FEA174A250CBCFBFAF81FFA87F90AFB13
:100BD00018CC45EA0C4508FB09F3AB420AD9ED19DC
:100BE00008F1FF3280F02381AB4240F22081A8F16E
:100BF00002083D44ED1AA4B2B5FBFAF00AFB105509
:100C000044EA054400FB09F9A14509D9E41900F1BA
:100C1000FF3380F00A81A14540F2078102383C444D
:100C2000A4EB090440EA08400021002E61D024FA18
:100C30000EF4002334607360BDE8F0878B4207D95F
:100C4000002E54D0002186E821000846BDE8F08738
:100C5000B3FA83F1002940F08E80AB4202D3824286
:100C600000F2FA80841A65EB03050120AC46002EE1
:100C70003FD086E81010BDE8F08712B90127B7FB16
:100C8000F2F7B7FA87FEBEF1000F34D1EB1B3A0C36
:100C90001FFA87FC0121B3FBF2F8250C02FB183385
:100CA00045EA03450CFB08F3AB4207D9ED1908F1FF
:100CB000FF3002D2AB4200F2D1808046ED1AA3B2DF
:100CC000B5FBF2F002FB105543EA05440CFB00FCB7
:100CD000A44507D9E41900F1FF3302D2A44500F27C
:100CE000B8801846A4EB0C0440EA08409DE7314662
:100CF0003046BDE8F087CEF1200405FA0EF307FA7E
:100D00000EF720FA04F83A0C25FA04F448EA03082E
:100D1000B4FBF2F14FEA184502FB11441FFA87FCBD
:100D200045EA044501FB0CF3AB4200FA0EF409D985
:100D3000ED1901F1FF3080F08A80AB4240F28780EC
:100D400002393D44EB1A1FFA88F5B3FBF2F002FBBF
:100D5000103345EA034500FB0CF3AB4207D9ED190C
:100D600000F1FF386FD2AB426DD902383D44EB1A27
:100D700040EA01418FE7C1F1200722FA07F88B40D2
:100D800005FA01F448EA030320FA07FE4FEA134C80
:100D9000FD404EEA040EB5FBFCF94FEA1E440CFB85
:100DA00019551FFA83F844EA054509FB08F4AC42DB
:100DB00002FA01F200FA01FA08D9ED1809F1FF3040
:100DC00043D2AC4241D9A9F102091D442D1B1FFA9F
:100DD0008EFEB5FBFCF00CFB10554EEA054400FB03
:100DE00008F8A04507D9E41800F1FF3529D2A0453D
:100DF00027D902381C4440EA0940A4EB0804A0FBB0
:100E000002894C45C6464D4615D312D056B1BAEBB1
:100E10000E0364EB050404FA07F7CB401F43CC40F4
:100E2000376074600021BDE8F0871846F8E6904608
:100E3000E0E6C245EAD2B8EB020E69EB03050138E1
:100E4000E4E72846D7E7404691E78146BEE70146FA
:100E500078E702383C4445E7084608E7A8F102086D
:100E60003D442BE7704700BF70B50F4E0F4D761B0A
:100E7000B61018BF002405D0013455F8043B98473C
:100E8000A642F9D10A4E0B4D761B00F0A7F8B6101A
:100E900018BF002406D0013455F8043B9847A642F9
:100EA000F9D170BD70BD00BFE80F4000E80F4000F1
:100EB000F00F4000E80F4000024B13B1024800F071
:100EC00005B8704700000000D90E4000002301461D
:100ED0001A46184600F01EB838B50A4C0A4D641B75
:100EE000A4100AD004F18043013B05EB8305013CCB
:100EF00055F804399847002CF9D1BDE8384000F086
:100F000077B800BF00104000FC0F4000704700BFE2
:100F1000704700BF2DE9F8432C4D064628689846D7
:100F20000F469146FFF7F2FF294B1C68D4F8483171
:100F3000002B3ED05A681F2A1CDC02F1010E76B14C
:100F400003EB82010124C1F88890D3F88801944012
:100F50002043022EC3F88801C1F8088123D0023251
:100F6000C3F804E0286843F82270FFF7D1FF00209F
:100F7000BDE8F883174B0BB34FF4C870AFF3008094
:100F80000346D8B1D4F848210260002141600A46E6
:100F9000C4F848014FF0010EC0F88811C0F88C1158
:100FA000002EDCD0CCE7D3F88C110C43C3F88C4175
:100FB000D5E704F5A673C4F84831BBE72868FFF706
:100FC000A7FF4FF0FF30BDE8F88300BF700F40204F
:100FD000D80F400000000000480B4020F8B500BFCB
:100FE000F8BC08BC9E467047B90E40006501400041
:100FF000F8B500BFF8BC08BC9E46704741014000F0
:0810000088FBFF7F01000000E6
:10100800BFF35F8F0138FBD17047010000093D0035
:101018006400000064000000640000006400000038
:101028006400000064000000640000006400000028
:10103800640000006400000064000000500000002C
:10104800640000006400000064000000500000001C
:101058003200000064000000500000003200000070
:101068005000000050000000500000005000000038
:1010780064000000640000006400000064000000D8
:1010880050000000640000006400000064000000DC
:101098005000000032000000640000005000000012
:1010A8003200000050000000500000005000000016
:1010B80050000000640000006400000064000000AC
:1010C8006400000096000000960000006400000024
:1010D8006400000064000000640000006400000078
:1010E8006400000064000000640000006400000068
:1010F8006400000096000000C800000050000000D6
:10110800500000005000000064000000640000006F
:101118006400000064000000640000009600000005
:1011280096000000640000006400000064000000F5
:101138006400000064000000640000006400000017
:101148006400000064000000640000006400000007
:1011580064000000640000006400000064000000F7
:101168006400000064000000960000009600000083
:1011780064000000640000006400000064000000D7
:1011880064000000640000006400000064000000C7
:10119800640000006400000096000000C800000021
:1011A80050000000500000005000000064000000E3
:1011B8006400000064000000640000006400000097
:1011C8009600000096000000640000006400000023
:1011D8006400000064000000640000006400000077
:1011E8006400000064000000640000006400000067
:1011F8006400000064000000640000003C0000007F
:10120800500000003C0000005000000050000000AA
:101218005000000050000000500000005000000086
:101228003C000000500000003C000000500000009E
:101238005000000050000000500000005000000066
:101248003C000000500000003C000000500000007E
:101258005000000050000000500000005000000046
:1012680050000000640000006400000064000000FA
:1012780064000000640000006400000064000000D6
:101288007D0000007D000000FA0000007D000000E5
:101298007D0000007D0000007D000000FA000000D5
:1012A8007D0000007D0000007D0000007D00000042
:1012B800FA0000007D0000007D0000007D000000B5
:1012C8007D000000770100007D0000007D00000027
:1012D8007D000000FA0000007D0000007D00000095
:1012E8007D0000007D000000FA0000007D00000085
:1012F8007D0000007D0000007D000000FA00000075
:101308007D0000007D0000007D0000007D000000E1
:10131800770100007D0000007D0000007D000000D6
:10132800FA0000007D0000007D0000007D00000044
:101338007D000000FA0000007D0000007D00000034
:101348007D0000007D000000FA0000007D00000024
:101358007D0000007D0000007D0000007D00000091
:10136800FA0000007D0000007D0000007D00000004
:10137800FA0000007D0000007D000000FA00000077
:101388007D000000FA0000007D0000007D000000E4
:101398007D000000FA0000007D0000007D000000D4
:1013A8007D0000007D00000077010000770100004B
:1013B800FA0000007D0000007D0000007D000000B4
:1013C800FA0000007D0000007D0000007D000000A4
:1013D8007D000000FA0000007D0000007D00000094
:1013E8007D0000007D000000770100007D00000006
:1013F8007D0000007D000000FA0000007D00000074
:101408007D0000007D0000007D000000FA00000063
:101418007D0000007D0000007D0000007D000000D0
:10142800FA0000007D0000007D0000007D00000043
:101438007D000000770100007D0000007D000000B5
:101448007D000000FA0000007D0000007D00000023
:101458007D0000007D000000FA0000007D00000013
:101468007D0000007D0000007D000000FA00000003
:101478007D0000007D0000007D0000007D00000070
:101488007D000000FA0000007D0000007D000000E3
:101498007D000000FA0000007D0000007D000000D3
:1014A800FA0000007D000000FA0000007D00000046
:1014B8007D0000007D000000FA0000007D000000B3
:1014C8007D0000007D0000007D0000007701000025
:1014D80077010000FA0000007D000000770100009D
:1014E800FA0000007D000000770100007D00000088
:1014F8007D0000007D0000007D0000007D000000F0
:101508007D0000007D0000007D00000077010000E4
:10151800FA0000007D00000077010000FA000000DA
:101528007D000000770100007D0000007D000000C4
:101538007D0000007D0000007D000000F401000037
:10154800FA0000007D00000077010000FA000000AA
:101558007D000000770100007D0000007D00000094
:101568007D0000007D0000007D0000007D0000007F
:101578007D0000007D00000077010000FA000000F7
:101588007D00000077010000FA0000007D000000E7
:10159800770100007D0000007D0000007D00000054
:1015A8007D0000007D000000F401000094020000AE
:1015B8009402000094020000FE0100009402000062
:1015C800020300007C010000FE0100007C01000015
:1015D80040010000B8010000E0010000C201000065
:1015E800AE0100007C01000094020000F802000037
:1015F8005C030000BC020000F80200009402000036
:101608000802000044020000E0010000FE010000A2
:101618007C01000040010000B8010000E00100006A
:10162800C2010000AE0100007C010000940200002D
:10163800F80200005C030000BC020000F802000091
:10164800940200000802000044020000E0010000CB
:10165800F4010000F8020000D0020000A802000017
:101668006C0200008A0200007C010000AE0100004C
:10167800F4010000AE010000F40100003A0200008D
:10168800F4010000F8020000D0020000A8020000E7
:101698006C0200008A020000FC030000FC0300004A
:1016A800FC0300007C010000F4010000F8020000C7
:1016B800D0020000A80200006C0200008A020000AC
:1016C8007C010000AE010000F4010000AE01000042
:1016D800F40100003A02000049020000260200005E
:1016E800F40100007C010000F4010000F401000096
:1016F800F4010000F4010000F8020000D00200002C
:10170800A80200006C0200008A0200007C010000B0
:10171800AE010000F4010000AE010000F401000079
:101728003A020000F4010000F8020000D0020000B4
:10173800A80200006C0200008A020000FC030000FE
:10174800FC030000FC0300007C010000F401000021
:10175800F8020000D0020000A80200006C0200009D
:101768008A0200007C010000AE010000F4010000C4
:10177800AE010000F40100003A0200004902000036
:1017880026020000F40100007C010000F4010000C2
:10179800F4010000F4010000F4010000F40100006D
:1017A800F4010000F401000044020000940200006B
:1017B800F4010000AE0100007C010000F40100000B
:1017C800F4010000F4010000F401000044020000EC
:1017D8009402000066030000F8020000F401000013
:1017E800F4010000F4010000F401000044020000CC
:1017F80094020000F4010000AE0100007C0100002A
:10180800940200009402000094020000FE0100000F
:1018180094020000020300007C0100004A0100005D
:1018280088010000B8010000B801000000000000B5
:10183800B8010000EE0100000B0200000B020000DE
:10184800000000000B0200004B020000EE01000047
:10185800EE01000000000000B8010000880100004F
:10186800B8010000000000004A01000088010000E3
:10187800B8010000B801000000000000B801000035
:10188800EE0100000B0200000B0200000000000047
:101898000B0200004B020000EE010000EE01000008
:1018A80000000000B801000088010000B801000035
:1018B800000000004A01000088010000B801000093
:1018C800B801000000000000B80100000B02000091
:1018D8004B0200004B020000000000004B02000019
:1018E80093020000BA020000BA02000000000000E3
:1018F800930200004B02000093020000B8010000B0
:1019080000000000B8010000EE0100000B0200001A
:101918000B020000000000004B02000093020000D0
:10192800B801000000000000B80100000B02000030
:10193800EE010000EE010000000000000B020000B4
:10194800B8010000EE01000000000000B80100002E
:10195800B8010000B8010000EE0100000B02000011
:101968000B020000000000000B0200004B02000008
:10197800EE010000EE01000000000000B8010000C8
:1019880088010000B8010000000000004A010000C2
:1019980088010000B8010000B80100000000000044
:1019A800B8010000EE0100000B0200000B0200006D
:1019B800000000000B0200004B020000EE010000D6
:1019C800EE01000000000000B801000088010000DE
:1019D800B8010000000000004A0100008801000072
:1019E800B8010000B801000000000000B8010000C4
:1019F8000B0200004B0200004B0200000000000038
:101A08004B02000093020000BA020000BA02000074
:101A180000000000930200004B0200009302000047
:101A2800B801000000000000B8010000EE0100004D
:101A38000B0200000B020000000000004B02000037
:101A480093020000B801000000000000B801000087
:101A58000B020000EE010000EE0100000000000093
:101A68000B020000B8010000EE01000000000000B9
:101A7800930200000000000000000000BA0200000D
:101A88000000000000000000930200009302000024
:101A98000000000010030000000000009302000096
:101AA8004B02000000000000000000004B02000094
:101AB80000000000000000000B0200000000000011
:101AC80000000000EE0100000B0200000000000012
:101AD800EE01000000000000B801000093020000C1
:101AE8000000000000000000BA0200000000000032
:101AF80000000000930200009302000000000000B4
:101B08001003000000000000930200004B020000D8
:101B180000000000000000004B0200000000000070
:101B2800000000000B0200000000000000000000A0
:101B3800EE0100000B02000000000000EE010000B2
:101B480000000000B801000000000000340E402032
:101B58009C0E4020040F4020000000000000000000
:101B6800000000000000000000000000000000006D
:101B7800000000000000000000000000000000005D
:101B8800000000000000000000000000000000004D
:101B9800000000000000000000000000000000003D
:101BA800000000000000000000000000000000002D
:101BB800000000000000000000000000000000001D
:101BC800000000000000000000000000000000000D
:101BD80000000000000000000000000000000000FD
:101BE80000000000000000000000000000000000ED
:101BF80001000000000000000E33CDAB34126DE68A
:101C0800ECDE05000B0000000000000000000000F2
:101C180000000000000000000000000000000000BC
:101C280000000000000000000000000000000000AC
:101C3800000000000000000000000000000000009C
:101C4800000000000000000000000000000000008C
:041F780000104020F5
:04000005004004DDD6
:00000001FF
